{
	"data": {
		"bytecode": {
			"linkReferences": {},
			"object": "60806040526040518060e0016040528060018152602001600a815260200161271081526020015f81526020016127108152602001600a8152602001600581525060015f820151815f01556020820151816001015560408201518160020155606082015181600301556080820151816004015560a0820151816005015560c0820151816006015550503480156091575f80fd5b50335f806101000a81548173ffffffffffffffffffffffffffffffffffffffff021916908373ffffffffffffffffffffffffffffffffffffffff160217905550610659806100de5f395ff3fe608060405234801561000f575f80fd5b506004361061003f575f3560e01c80636a10d4d614610043578063ac9d66221461005f578063ef5fb05b14610083575b5f80fd5b61005d600480360381019061005891906102b0565b6100a1565b005b6100676101b3565b60405161007a97969594939291906102fd565b60405180910390f35b61008b6101e2565b60405161009891906103f4565b60405180910390f35b335f73ffffffffffffffffffffffffffffffffffffffff168173ffffffffffffffffffffffffffffffffffffffff1603610110576040517f08c379a00000000000000000000000000000000000000000000000000000000081526004016101079061045e565b60405180910390fd5b7f0972694eedc3ab3d42314be8d483e8e3e12a41000189e54a50f494e5bdaffc1f60405161013d906104c6565b60405180910390a18273ffffffffffffffffffffffffffffffffffffffff1663fc2030216001846040518363ffffffff1660e01b81526004016101819291906105fb565b5f604051808303815f87803b158015610198575f80fd5b505af11580156101aa573d5f803e3d5ffd5b50505050505050565b6001805f0154908060010154908060020154908060030154908060040154908060050154908060060154905087565b60606040518060400160405280600681526020017f48656c6c6f210000000000000000000000000000000000000000000000000000815250905090565b5f80fd5b5f73ffffffffffffffffffffffffffffffffffffffff82169050919050565b5f61024c82610223565b9050919050565b61025c81610242565b8114610266575f80fd5b50565b5f8135905061027781610253565b92915050565b5f819050919050565b61028f8161027d565b8114610299575f80fd5b50565b5f813590506102aa81610286565b92915050565b5f80604083850312156102c6576102c561021f565b5b5f6102d385828601610269565b92505060206102e48582860161029c565b9150509250929050565b6102f78161027d565b82525050565b5f60e0820190506103105f83018a6102ee565b61031d60208301896102ee565b61032a60408301886102ee565b61033760608301876102ee565b61034460808301866102ee565b61035160a08301856102ee565b61035e60c08301846102ee565b98975050505050505050565b5f81519050919050565b5f82825260208201905092915050565b5f5b838110156103a1578082015181840152602081019050610386565b5f8484015250505050565b5f601f19601f8301169050919050565b5f6103c68261036a565b6103d08185610374565b93506103e0818560208601610384565b6103e9816103ac565b840191505092915050565b5f6020820190508181035f83015261040c81846103bc565b905092915050565b7f4e6f742056616c696420416464726573732100000000000000000000000000005f82015250565b5f610448601283610374565b915061045382610414565b602082019050919050565b5f6020820190508181035f8301526104758161043c565b9050919050565b7f546f6b656e4d616e616765722e637265617465546f6b656e00000000000000005f82015250565b5f6104b0601883610374565b91506104bb8261047c565b602082019050919050565b5f6020820190508181035f8301526104dd816104a4565b9050919050565b5f815f1c9050919050565b5f819050919050565b5f61050a610505836104e4565b6104ef565b9050919050565b61051a8161027d565b82525050565b60e082015f808301549050610534816104f8565b6105405f860182610511565b5060018301549050610551816104f8565b61055e6020860182610511565b506002830154905061056f816104f8565b61057c6040860182610511565b506003830154905061058d816104f8565b61059a6060860182610511565b50600483015490506105ab816104f8565b6105b86080860182610511565b50600583015490506105c9816104f8565b6105d660a0860182610511565b50600683015490506105e7816104f8565b6105f460c0860182610511565b5050505050565b5f6101008201905061060f5f830185610520565b61061c60e08301846102ee565b939250505056fea2646970667358221220b08d68a761f82c7a8b0693f1fda32ce7b25e048bdf8e6af78d79ace8bfed980364736f6c63430008190033",
			"opcodes": "PUSH1 0x80 PUSH1 0x40 MSTORE PUSH1 0x40 MLOAD DUP1 PUSH1 0xE0 ADD PUSH1 0x40 MSTORE DUP1 PUSH1 0x1 DUP2 MSTORE PUSH1 0x20 ADD PUSH1 0xA DUP2 MSTORE PUSH1 0x20 ADD PUSH2 0x2710 DUP2 MSTORE PUSH1 0x20 ADD PUSH0 DUP2 MSTORE PUSH1 0x20 ADD PUSH2 0x2710 DUP2 MSTORE PUSH1 0x20 ADD PUSH1 0xA DUP2 MSTORE PUSH1 0x20 ADD PUSH1 0x5 DUP2 MSTORE POP PUSH1 0x1 PUSH0 DUP3 ADD MLOAD DUP2 PUSH0 ADD SSTORE PUSH1 0x20 DUP3 ADD MLOAD DUP2 PUSH1 0x1 ADD SSTORE PUSH1 0x40 DUP3 ADD MLOAD DUP2 PUSH1 0x2 ADD SSTORE PUSH1 0x60 DUP3 ADD MLOAD DUP2 PUSH1 0x3 ADD SSTORE PUSH1 0x80 DUP3 ADD MLOAD DUP2 PUSH1 0x4 ADD SSTORE PUSH1 0xA0 DUP3 ADD MLOAD DUP2 PUSH1 0x5 ADD SSTORE PUSH1 0xC0 DUP3 ADD MLOAD DUP2 PUSH1 0x6 ADD SSTORE POP POP CALLVALUE DUP1 ISZERO PUSH1 0x91 JUMPI PUSH0 DUP1 REVERT JUMPDEST POP CALLER PUSH0 DUP1 PUSH2 0x100 EXP DUP2 SLOAD DUP2 PUSH20 0xFFFFFFFFFFFFFFFFFFFFFFFFFFFFFFFFFFFFFFFF MUL NOT AND SWAP1 DUP4 PUSH20 0xFFFFFFFFFFFFFFFFFFFFFFFFFFFFFFFFFFFFFFFF AND MUL OR SWAP1 SSTORE POP PUSH2 0x659 DUP1 PUSH2 0xDE PUSH0 CODECOPY PUSH0 RETURN INVALID PUSH1 0x80 PUSH1 0x40 MSTORE CALLVALUE DUP1 ISZERO PUSH2 0xF JUMPI PUSH0 DUP1 REVERT JUMPDEST POP PUSH1 0x4 CALLDATASIZE LT PUSH2 0x3F JUMPI PUSH0 CALLDATALOAD PUSH1 0xE0 SHR DUP1 PUSH4 0x6A10D4D6 EQ PUSH2 0x43 JUMPI DUP1 PUSH4 0xAC9D6622 EQ PUSH2 0x5F JUMPI DUP1 PUSH4 0xEF5FB05B EQ PUSH2 0x83 JUMPI JUMPDEST PUSH0 DUP1 REVERT JUMPDEST PUSH2 0x5D PUSH1 0x4 DUP1 CALLDATASIZE SUB DUP2 ADD SWAP1 PUSH2 0x58 SWAP2 SWAP1 PUSH2 0x2B0 JUMP JUMPDEST PUSH2 0xA1 JUMP JUMPDEST STOP JUMPDEST PUSH2 0x67 PUSH2 0x1B3 JUMP JUMPDEST PUSH1 0x40 MLOAD PUSH2 0x7A SWAP8 SWAP7 SWAP6 SWAP5 SWAP4 SWAP3 SWAP2 SWAP1 PUSH2 0x2FD JUMP JUMPDEST PUSH1 0x40 MLOAD DUP1 SWAP2 SUB SWAP1 RETURN JUMPDEST PUSH2 0x8B PUSH2 0x1E2 JUMP JUMPDEST PUSH1 0x40 MLOAD PUSH2 0x98 SWAP2 SWAP1 PUSH2 0x3F4 JUMP JUMPDEST PUSH1 0x40 MLOAD DUP1 SWAP2 SUB SWAP1 RETURN JUMPDEST CALLER PUSH0 PUSH20 0xFFFFFFFFFFFFFFFFFFFFFFFFFFFFFFFFFFFFFFFF AND DUP2 PUSH20 0xFFFFFFFFFFFFFFFFFFFFFFFFFFFFFFFFFFFFFFFF AND SUB PUSH2 0x110 JUMPI PUSH1 0x40 MLOAD PUSH32 0x8C379A000000000000000000000000000000000000000000000000000000000 DUP2 MSTORE PUSH1 0x4 ADD PUSH2 0x107 SWAP1 PUSH2 0x45E JUMP JUMPDEST PUSH1 0x40 MLOAD DUP1 SWAP2 SUB SWAP1 REVERT JUMPDEST PUSH32 0x972694EEDC3AB3D42314BE8D483E8E3E12A41000189E54A50F494E5BDAFFC1F PUSH1 0x40 MLOAD PUSH2 0x13D SWAP1 PUSH2 0x4C6 JUMP JUMPDEST PUSH1 0x40 MLOAD DUP1 SWAP2 SUB SWAP1 LOG1 DUP3 PUSH20 0xFFFFFFFFFFFFFFFFFFFFFFFFFFFFFFFFFFFFFFFF AND PUSH4 0xFC203021 PUSH1 0x1 DUP5 PUSH1 0x40 MLOAD DUP4 PUSH4 0xFFFFFFFF AND PUSH1 0xE0 SHL DUP2 MSTORE PUSH1 0x4 ADD PUSH2 0x181 SWAP3 SWAP2 SWAP1 PUSH2 0x5FB JUMP JUMPDEST PUSH0 PUSH1 0x40 MLOAD DUP1 DUP4 SUB DUP2 PUSH0 DUP8 DUP1 EXTCODESIZE ISZERO DUP1 ISZERO PUSH2 0x198 JUMPI PUSH0 DUP1 REVERT JUMPDEST POP GAS CALL ISZERO DUP1 ISZERO PUSH2 0x1AA JUMPI RETURNDATASIZE PUSH0 DUP1 RETURNDATACOPY RETURNDATASIZE PUSH0 REVERT JUMPDEST POP POP POP POP POP POP POP JUMP JUMPDEST PUSH1 0x1 DUP1 PUSH0 ADD SLOAD SWAP1 DUP1 PUSH1 0x1 ADD SLOAD SWAP1 DUP1 PUSH1 0x2 ADD SLOAD SWAP1 DUP1 PUSH1 0x3 ADD SLOAD SWAP1 DUP1 PUSH1 0x4 ADD SLOAD SWAP1 DUP1 PUSH1 0x5 ADD SLOAD SWAP1 DUP1 PUSH1 0x6 ADD SLOAD SWAP1 POP DUP8 JUMP JUMPDEST PUSH1 0x60 PUSH1 0x40 MLOAD DUP1 PUSH1 0x40 ADD PUSH1 0x40 MSTORE DUP1 PUSH1 0x6 DUP2 MSTORE PUSH1 0x20 ADD PUSH32 0x48656C6C6F210000000000000000000000000000000000000000000000000000 DUP2 MSTORE POP SWAP1 POP SWAP1 JUMP JUMPDEST PUSH0 DUP1 REVERT JUMPDEST PUSH0 PUSH20 0xFFFFFFFFFFFFFFFFFFFFFFFFFFFFFFFFFFFFFFFF DUP3 AND SWAP1 POP SWAP2 SWAP1 POP JUMP JUMPDEST PUSH0 PUSH2 0x24C DUP3 PUSH2 0x223 JUMP JUMPDEST SWAP1 POP SWAP2 SWAP1 POP JUMP JUMPDEST PUSH2 0x25C DUP2 PUSH2 0x242 JUMP JUMPDEST DUP2 EQ PUSH2 0x266 JUMPI PUSH0 DUP1 REVERT JUMPDEST POP JUMP JUMPDEST PUSH0 DUP2 CALLDATALOAD SWAP1 POP PUSH2 0x277 DUP2 PUSH2 0x253 JUMP JUMPDEST SWAP3 SWAP2 POP POP JUMP JUMPDEST PUSH0 DUP2 SWAP1 POP SWAP2 SWAP1 POP JUMP JUMPDEST PUSH2 0x28F DUP2 PUSH2 0x27D JUMP JUMPDEST DUP2 EQ PUSH2 0x299 JUMPI PUSH0 DUP1 REVERT JUMPDEST POP JUMP JUMPDEST PUSH0 DUP2 CALLDATALOAD SWAP1 POP PUSH2 0x2AA DUP2 PUSH2 0x286 JUMP JUMPDEST SWAP3 SWAP2 POP POP JUMP JUMPDEST PUSH0 DUP1 PUSH1 0x40 DUP4 DUP6 SUB SLT ISZERO PUSH2 0x2C6 JUMPI PUSH2 0x2C5 PUSH2 0x21F JUMP JUMPDEST JUMPDEST PUSH0 PUSH2 0x2D3 DUP6 DUP3 DUP7 ADD PUSH2 0x269 JUMP JUMPDEST SWAP3 POP POP PUSH1 0x20 PUSH2 0x2E4 DUP6 DUP3 DUP7 ADD PUSH2 0x29C JUMP JUMPDEST SWAP2 POP POP SWAP3 POP SWAP3 SWAP1 POP JUMP JUMPDEST PUSH2 0x2F7 DUP2 PUSH2 0x27D JUMP JUMPDEST DUP3 MSTORE POP POP JUMP JUMPDEST PUSH0 PUSH1 0xE0 DUP3 ADD SWAP1 POP PUSH2 0x310 PUSH0 DUP4 ADD DUP11 PUSH2 0x2EE JUMP JUMPDEST PUSH2 0x31D PUSH1 0x20 DUP4 ADD DUP10 PUSH2 0x2EE JUMP JUMPDEST PUSH2 0x32A PUSH1 0x40 DUP4 ADD DUP9 PUSH2 0x2EE JUMP JUMPDEST PUSH2 0x337 PUSH1 0x60 DUP4 ADD DUP8 PUSH2 0x2EE JUMP JUMPDEST PUSH2 0x344 PUSH1 0x80 DUP4 ADD DUP7 PUSH2 0x2EE JUMP JUMPDEST PUSH2 0x351 PUSH1 0xA0 DUP4 ADD DUP6 PUSH2 0x2EE JUMP JUMPDEST PUSH2 0x35E PUSH1 0xC0 DUP4 ADD DUP5 PUSH2 0x2EE JUMP JUMPDEST SWAP9 SWAP8 POP POP POP POP POP POP POP POP JUMP JUMPDEST PUSH0 DUP2 MLOAD SWAP1 POP SWAP2 SWAP1 POP JUMP JUMPDEST PUSH0 DUP3 DUP3 MSTORE PUSH1 0x20 DUP3 ADD SWAP1 POP SWAP3 SWAP2 POP POP JUMP JUMPDEST PUSH0 JUMPDEST DUP4 DUP2 LT ISZERO PUSH2 0x3A1 JUMPI DUP1 DUP3 ADD MLOAD DUP2 DUP5 ADD MSTORE PUSH1 0x20 DUP2 ADD SWAP1 POP PUSH2 0x386 JUMP JUMPDEST PUSH0 DUP5 DUP5 ADD MSTORE POP POP POP POP JUMP JUMPDEST PUSH0 PUSH1 0x1F NOT PUSH1 0x1F DUP4 ADD AND SWAP1 POP SWAP2 SWAP1 POP JUMP JUMPDEST PUSH0 PUSH2 0x3C6 DUP3 PUSH2 0x36A JUMP JUMPDEST PUSH2 0x3D0 DUP2 DUP6 PUSH2 0x374 JUMP JUMPDEST SWAP4 POP PUSH2 0x3E0 DUP2 DUP6 PUSH1 0x20 DUP7 ADD PUSH2 0x384 JUMP JUMPDEST PUSH2 0x3E9 DUP2 PUSH2 0x3AC JUMP JUMPDEST DUP5 ADD SWAP2 POP POP SWAP3 SWAP2 POP POP JUMP JUMPDEST PUSH0 PUSH1 0x20 DUP3 ADD SWAP1 POP DUP2 DUP2 SUB PUSH0 DUP4 ADD MSTORE PUSH2 0x40C DUP2 DUP5 PUSH2 0x3BC JUMP JUMPDEST SWAP1 POP SWAP3 SWAP2 POP POP JUMP JUMPDEST PUSH32 0x4E6F742056616C69642041646472657373210000000000000000000000000000 PUSH0 DUP3 ADD MSTORE POP JUMP JUMPDEST PUSH0 PUSH2 0x448 PUSH1 0x12 DUP4 PUSH2 0x374 JUMP JUMPDEST SWAP2 POP PUSH2 0x453 DUP3 PUSH2 0x414 JUMP JUMPDEST PUSH1 0x20 DUP3 ADD SWAP1 POP SWAP2 SWAP1 POP JUMP JUMPDEST PUSH0 PUSH1 0x20 DUP3 ADD SWAP1 POP DUP2 DUP2 SUB PUSH0 DUP4 ADD MSTORE PUSH2 0x475 DUP2 PUSH2 0x43C JUMP JUMPDEST SWAP1 POP SWAP2 SWAP1 POP JUMP JUMPDEST PUSH32 0x546F6B656E4D616E616765722E637265617465546F6B656E0000000000000000 PUSH0 DUP3 ADD MSTORE POP JUMP JUMPDEST PUSH0 PUSH2 0x4B0 PUSH1 0x18 DUP4 PUSH2 0x374 JUMP JUMPDEST SWAP2 POP PUSH2 0x4BB DUP3 PUSH2 0x47C JUMP JUMPDEST PUSH1 0x20 DUP3 ADD SWAP1 POP SWAP2 SWAP1 POP JUMP JUMPDEST PUSH0 PUSH1 0x20 DUP3 ADD SWAP1 POP DUP2 DUP2 SUB PUSH0 DUP4 ADD MSTORE PUSH2 0x4DD DUP2 PUSH2 0x4A4 JUMP JUMPDEST SWAP1 POP SWAP2 SWAP1 POP JUMP JUMPDEST PUSH0 DUP2 PUSH0 SHR SWAP1 POP SWAP2 SWAP1 POP JUMP JUMPDEST PUSH0 DUP2 SWAP1 POP SWAP2 SWAP1 POP JUMP JUMPDEST PUSH0 PUSH2 0x50A PUSH2 0x505 DUP4 PUSH2 0x4E4 JUMP JUMPDEST PUSH2 0x4EF JUMP JUMPDEST SWAP1 POP SWAP2 SWAP1 POP JUMP JUMPDEST PUSH2 0x51A DUP2 PUSH2 0x27D JUMP JUMPDEST DUP3 MSTORE POP POP JUMP JUMPDEST PUSH1 0xE0 DUP3 ADD PUSH0 DUP1 DUP4 ADD SLOAD SWAP1 POP PUSH2 0x534 DUP2 PUSH2 0x4F8 JUMP JUMPDEST PUSH2 0x540 PUSH0 DUP7 ADD DUP3 PUSH2 0x511 JUMP JUMPDEST POP PUSH1 0x1 DUP4 ADD SLOAD SWAP1 POP PUSH2 0x551 DUP2 PUSH2 0x4F8 JUMP JUMPDEST PUSH2 0x55E PUSH1 0x20 DUP7 ADD DUP3 PUSH2 0x511 JUMP JUMPDEST POP PUSH1 0x2 DUP4 ADD SLOAD SWAP1 POP PUSH2 0x56F DUP2 PUSH2 0x4F8 JUMP JUMPDEST PUSH2 0x57C PUSH1 0x40 DUP7 ADD DUP3 PUSH2 0x511 JUMP JUMPDEST POP PUSH1 0x3 DUP4 ADD SLOAD SWAP1 POP PUSH2 0x58D DUP2 PUSH2 0x4F8 JUMP JUMPDEST PUSH2 0x59A PUSH1 0x60 DUP7 ADD DUP3 PUSH2 0x511 JUMP JUMPDEST POP PUSH1 0x4 DUP4 ADD SLOAD SWAP1 POP PUSH2 0x5AB DUP2 PUSH2 0x4F8 JUMP JUMPDEST PUSH2 0x5B8 PUSH1 0x80 DUP7 ADD DUP3 PUSH2 0x511 JUMP JUMPDEST POP PUSH1 0x5 DUP4 ADD SLOAD SWAP1 POP PUSH2 0x5C9 DUP2 PUSH2 0x4F8 JUMP JUMPDEST PUSH2 0x5D6 PUSH1 0xA0 DUP7 ADD DUP3 PUSH2 0x511 JUMP JUMPDEST POP PUSH1 0x6 DUP4 ADD SLOAD SWAP1 POP PUSH2 0x5E7 DUP2 PUSH2 0x4F8 JUMP JUMPDEST PUSH2 0x5F4 PUSH1 0xC0 DUP7 ADD DUP3 PUSH2 0x511 JUMP JUMPDEST POP POP POP POP POP JUMP JUMPDEST PUSH0 PUSH2 0x100 DUP3 ADD SWAP1 POP PUSH2 0x60F PUSH0 DUP4 ADD DUP6 PUSH2 0x520 JUMP JUMPDEST PUSH2 0x61C PUSH1 0xE0 DUP4 ADD DUP5 PUSH2 0x2EE JUMP JUMPDEST SWAP4 SWAP3 POP POP POP JUMP INVALID LOG2 PUSH5 0x6970667358 0x22 SLT KECCAK256 0xB0 DUP14 PUSH9 0xA761F82C7A8B0693F1 REVERT LOG3 0x2C 0xE7 0xB2 MCOPY DIV DUP12 0xDF DUP15 PUSH11 0xF78D79ACE8BFED98036473 PUSH16 0x6C634300081900330000000000000000 "
		},
		"gasEstimates": {
			"creation": {
				"codeDepositCost": "325000",
				"executionCost": "162501",
				"totalCost": "487501"
			},
			"external": {
				"createToken(address,uint256)": "914",
				"sayHello()": "infinite",
				"testSubscription()": "infinite"
			}
		},
		"methodIdentifiers": {
			"createToken(address,uint256)": "6a10d4d6",
			"sayHello()": "ef5fb05b",
			"testSubscription()": "ac9d6622"
		}
	},
	"abi": [
		{
			"inputs": [],
			"stateMutability": "nonpayable",
			"type": "constructor"
		},
		{
			"anonymous": false,
			"inputs": [
				{
					"indexed": false,
					"internalType": "string",
					"name": "message",
					"type": "string"
				}
			],
			"name": "testCreateToken",
			"type": "event"
		},
		{
			"inputs": [
				{
					"internalType": "address",
					"name": "_addr",
					"type": "address"
				},
				{
					"internalType": "uint256",
					"name": "amount",
					"type": "uint256"
				}
			],
			"name": "createToken",
			"outputs": [],
			"stateMutability": "nonpayable",
			"type": "function"
		},
		{
			"inputs": [],
			"name": "sayHello",
			"outputs": [
				{
					"internalType": "string",
					"name": "",
					"type": "string"
				}
			],
			"stateMutability": "pure",
			"type": "function"
		},
		{
			"inputs": [],
			"name": "testSubscription",
			"outputs": [
				{
					"internalType": "uint256",
					"name": "code",
					"type": "uint256"
				},
				{
					"internalType": "uint256",
					"name": "farm_code",
					"type": "uint256"
				},
				{
					"internalType": "uint256",
					"name": "confirm_price",
					"type": "uint256"
				},
				{
					"internalType": "uint256",
					"name": "started_time",
					"type": "uint256"
				},
				{
					"internalType": "uint256",
					"name": "end_time",
					"type": "uint256"
				},
				{
					"internalType": "uint256",
					"name": "limit_num",
					"type": "uint256"
				},
				{
					"internalType": "uint256",
					"name": "return_rate",
					"type": "uint256"
				}
			],
			"stateMutability": "view",
			"type": "function"
		}
	]
}